{
  "_format": "hh-sol-artifact-1",
  "contractName": "YouTube",
  "sourceName": "contracts/YouTube.sol",
  "abi": [
    {
      "inputs": [],
      "stateMutability": "nonpayable",
      "type": "constructor"
    },
    {
      "anonymous": false,
      "inputs": [
        {
          "indexed": false,
          "internalType": "uint256",
          "name": "id",
          "type": "uint256"
        },
        {
          "indexed": false,
          "internalType": "string",
          "name": "hash",
          "type": "string"
        },
        {
          "indexed": false,
          "internalType": "string",
          "name": "title",
          "type": "string"
        },
        {
          "indexed": false,
          "internalType": "string",
          "name": "description",
          "type": "string"
        },
        {
          "indexed": false,
          "internalType": "string",
          "name": "location",
          "type": "string"
        },
        {
          "indexed": false,
          "internalType": "string",
          "name": "category",
          "type": "string"
        },
        {
          "indexed": false,
          "internalType": "string",
          "name": "thumbnailHash",
          "type": "string"
        },
        {
          "indexed": false,
          "internalType": "string",
          "name": "date",
          "type": "string"
        },
        {
          "indexed": false,
          "internalType": "address",
          "name": "author",
          "type": "address"
        }
      ],
      "name": "VideoUploaded",
      "type": "event"
    },
    {
      "inputs": [],
      "name": "name",
      "outputs": [
        {
          "internalType": "string",
          "name": "",
          "type": "string"
        }
      ],
      "stateMutability": "view",
      "type": "function"
    },
    {
      "inputs": [
        {
          "internalType": "string",
          "name": "_videoHash",
          "type": "string"
        },
        {
          "internalType": "string",
          "name": "_title",
          "type": "string"
        },
        {
          "internalType": "string",
          "name": "_description",
          "type": "string"
        },
        {
          "internalType": "string",
          "name": "_location",
          "type": "string"
        },
        {
          "internalType": "string",
          "name": "_category",
          "type": "string"
        },
        {
          "internalType": "string",
          "name": "_thumbnailHash",
          "type": "string"
        },
        {
          "internalType": "string",
          "name": "_date",
          "type": "string"
        }
      ],
      "name": "uploadVideo",
      "outputs": [],
      "stateMutability": "nonpayable",
      "type": "function"
    },
    {
      "inputs": [],
      "name": "videoCount",
      "outputs": [
        {
          "internalType": "uint256",
          "name": "",
          "type": "uint256"
        }
      ],
      "stateMutability": "view",
      "type": "function"
    },
    {
      "inputs": [
        {
          "internalType": "uint256",
          "name": "",
          "type": "uint256"
        }
      ],
      "name": "videos",
      "outputs": [
        {
          "internalType": "uint256",
          "name": "id",
          "type": "uint256"
        },
        {
          "internalType": "string",
          "name": "hash",
          "type": "string"
        },
        {
          "internalType": "string",
          "name": "title",
          "type": "string"
        },
        {
          "internalType": "string",
          "name": "description",
          "type": "string"
        },
        {
          "internalType": "string",
          "name": "location",
          "type": "string"
        },
        {
          "internalType": "string",
          "name": "category",
          "type": "string"
        },
        {
          "internalType": "string",
          "name": "thumbnailHash",
          "type": "string"
        },
        {
          "internalType": "string",
          "name": "date",
          "type": "string"
        },
        {
          "internalType": "address",
          "name": "author",
          "type": "address"
        }
      ],
      "stateMutability": "view",
      "type": "function"
    }
  ],
  "bytecode": "0x6080604052600080556040518060400160405280600781526020017f596f75547562650000000000000000000000000000000000000000000000000081525060019080519060200190620000559291906200006a565b503480156200006357600080fd5b506200017f565b828054620000789062000149565b90600052602060002090601f0160209004810192826200009c5760008555620000e8565b82601f10620000b757805160ff1916838001178555620000e8565b82800160010185558215620000e8579182015b82811115620000e7578251825591602001919060010190620000ca565b5b509050620000f79190620000fb565b5090565b5b8082111562000116576000816000905550600101620000fc565b5090565b7f4e487b7100000000000000000000000000000000000000000000000000000000600052602260045260246000fd5b600060028204905060018216806200016257607f821691505b602082108114156200017957620001786200011a565b5b50919050565b610e8e806200018f6000396000f3fe608060405234801561001057600080fd5b506004361061004c5760003560e01c806306fdde0314610051578063a1df8fa41461006f578063c61b5f4c1461008b578063e6821bf5146100a9575b600080fd5b6100596100e1565b6040516100669190610922565b60405180910390f35b61008960048036038101906100849190610a8d565b61016f565b005b6100936103ba565b6040516100a09190610c0c565b60405180910390f35b6100c360048036038101906100be9190610c53565b6103c0565b6040516100d899989796959493929190610cc1565b60405180910390f35b600180546100ee90610dae565b80601f016020809104026020016040519081016040528092919081815260200182805461011a90610dae565b80156101675780601f1061013c57610100808354040283529160200191610167565b820191906000526020600020905b81548152906001019060200180831161014a57829003601f168201915b505050505081565b600087511161017d57600080fd5b600086511161018b57600080fd5b600073ffffffffffffffffffffffffffffffffffffffff163373ffffffffffffffffffffffffffffffffffffffff1614156101c557600080fd5b6000808154809291906101d790610e0f565b919050555060405180610120016040528060005481526020018881526020018781526020018681526020018581526020018481526020018381526020018281526020013373ffffffffffffffffffffffffffffffffffffffff16815250600260008054815260200190815260200160002060008201518160000155602082015181600101908051906020019061026e9291906107e6565b50604082015181600201908051906020019061028b9291906107e6565b5060608201518160030190805190602001906102a89291906107e6565b5060808201518160040190805190602001906102c59291906107e6565b5060a08201518160050190805190602001906102e29291906107e6565b5060c08201518160060190805190602001906102ff9291906107e6565b5060e082015181600701908051906020019061031c9291906107e6565b506101008201518160080160006101000a81548173ffffffffffffffffffffffffffffffffffffffff021916908373ffffffffffffffffffffffffffffffffffffffff1602179055509050507f0b0639108adcb9c8f8ce68f9c4abb1e07cd8fa50cc559b5a55a875a79b579f4660005488888888888888336040516103a999989796959493929190610cc1565b60405180910390a150505050505050565b60005481565b60026020528060005260406000206000915090508060000154908060010180546103e990610dae565b80601f016020809104026020016040519081016040528092919081815260200182805461041590610dae565b80156104625780601f1061043757610100808354040283529160200191610462565b820191906000526020600020905b81548152906001019060200180831161044557829003601f168201915b50505050509080600201805461047790610dae565b80601f01602080910402602001604051908101604052809291908181526020018280546104a390610dae565b80156104f05780601f106104c5576101008083540402835291602001916104f0565b820191906000526020600020905b8154815290600101906020018083116104d357829003601f168201915b50505050509080600301805461050590610dae565b80601f016020809104026020016040519081016040528092919081815260200182805461053190610dae565b801561057e5780601f106105535761010080835404028352916020019161057e565b820191906000526020600020905b81548152906001019060200180831161056157829003601f168201915b50505050509080600401805461059390610dae565b80601f01602080910402602001604051908101604052809291908181526020018280546105bf90610dae565b801561060c5780601f106105e15761010080835404028352916020019161060c565b820191906000526020600020905b8154815290600101906020018083116105ef57829003601f168201915b50505050509080600501805461062190610dae565b80601f016020809104026020016040519081016040528092919081815260200182805461064d90610dae565b801561069a5780601f1061066f5761010080835404028352916020019161069a565b820191906000526020600020905b81548152906001019060200180831161067d57829003601f168201915b5050505050908060060180546106af90610dae565b80601f01602080910402602001604051908101604052809291908181526020018280546106db90610dae565b80156107285780601f106106fd57610100808354040283529160200191610728565b820191906000526020600020905b81548152906001019060200180831161070b57829003601f168201915b50505050509080600701805461073d90610dae565b80601f016020809104026020016040519081016040528092919081815260200182805461076990610dae565b80156107b65780601f1061078b576101008083540402835291602001916107b6565b820191906000526020600020905b81548152906001019060200180831161079957829003601f168201915b5050505050908060080160009054906101000a900473ffffffffffffffffffffffffffffffffffffffff16905089565b8280546107f290610dae565b90600052602060002090601f016020900481019282610814576000855561085b565b82601f1061082d57805160ff191683800117855561085b565b8280016001018555821561085b579182015b8281111561085a57825182559160200191906001019061083f565b5b509050610868919061086c565b5090565b5b8082111561088557600081600090555060010161086d565b5090565b600081519050919050565b600082825260208201905092915050565b60005b838110156108c35780820151818401526020810190506108a8565b838111156108d2576000848401525b50505050565b6000601f19601f8301169050919050565b60006108f482610889565b6108fe8185610894565b935061090e8185602086016108a5565b610917816108d8565b840191505092915050565b6000602082019050818103600083015261093c81846108e9565b905092915050565b6000604051905090565b600080fd5b600080fd5b600080fd5b600080fd5b7f4e487b7100000000000000000000000000000000000000000000000000000000600052604160045260246000fd5b61099a826108d8565b810181811067ffffffffffffffff821117156109b9576109b8610962565b5b80604052505050565b60006109cc610944565b90506109d88282610991565b919050565b600067ffffffffffffffff8211156109f8576109f7610962565b5b610a01826108d8565b9050602081019050919050565b82818337600083830152505050565b6000610a30610a2b846109dd565b6109c2565b905082815260208101848484011115610a4c57610a4b61095d565b5b610a57848285610a0e565b509392505050565b600082601f830112610a7457610a73610958565b5b8135610a84848260208601610a1d565b91505092915050565b600080600080600080600060e0888a031215610aac57610aab61094e565b5b600088013567ffffffffffffffff811115610aca57610ac9610953565b5b610ad68a828b01610a5f565b975050602088013567ffffffffffffffff811115610af757610af6610953565b5b610b038a828b01610a5f565b965050604088013567ffffffffffffffff811115610b2457610b23610953565b5b610b308a828b01610a5f565b955050606088013567ffffffffffffffff811115610b5157610b50610953565b5b610b5d8a828b01610a5f565b945050608088013567ffffffffffffffff811115610b7e57610b7d610953565b5b610b8a8a828b01610a5f565b93505060a088013567ffffffffffffffff811115610bab57610baa610953565b5b610bb78a828b01610a5f565b92505060c088013567ffffffffffffffff811115610bd857610bd7610953565b5b610be48a828b01610a5f565b91505092959891949750929550565b6000819050919050565b610c0681610bf3565b82525050565b6000602082019050610c216000830184610bfd565b92915050565b610c3081610bf3565b8114610c3b57600080fd5b50565b600081359050610c4d81610c27565b92915050565b600060208284031215610c6957610c6861094e565b5b6000610c7784828501610c3e565b91505092915050565b600073ffffffffffffffffffffffffffffffffffffffff82169050919050565b6000610cab82610c80565b9050919050565b610cbb81610ca0565b82525050565b600061012082019050610cd7600083018c610bfd565b8181036020830152610ce9818b6108e9565b90508181036040830152610cfd818a6108e9565b90508181036060830152610d1181896108e9565b90508181036080830152610d2581886108e9565b905081810360a0830152610d3981876108e9565b905081810360c0830152610d4d81866108e9565b905081810360e0830152610d6181856108e9565b9050610d71610100830184610cb2565b9a9950505050505050505050565b7f4e487b7100000000000000000000000000000000000000000000000000000000600052602260045260246000fd5b60006002820490506001821680610dc657607f821691505b60208210811415610dda57610dd9610d7f565b5b50919050565b7f4e487b7100000000000000000000000000000000000000000000000000000000600052601160045260246000fd5b6000610e1a82610bf3565b91507fffffffffffffffffffffffffffffffffffffffffffffffffffffffffffffffff821415610e4d57610e4c610de0565b5b60018201905091905056fea2646970667358221220b2606acdd91ee3cf2f38d97fb52eb2c4f3341a7903a71f3660df28de2fb9fb8c64736f6c63430008090033",
  "linkReferences": {},
  "deployedLinkReferences": {}
}